{
  "contractName": "FlashloanUser",
  "abi": [
    {
      "inputs": [
        {
          "internalType": "address",
          "name": "flashloan",
          "type": "address"
        },
        {
          "internalType": "uint256",
          "name": "amount",
          "type": "uint256"
        },
        {
          "internalType": "address",
          "name": "token",
          "type": "address"
        }
      ],
      "name": "startFlashloan",
      "outputs": [],
      "stateMutability": "nonpayable",
      "type": "function"
    },
    {
      "inputs": [
        {
          "internalType": "uint256",
          "name": "amount",
          "type": "uint256"
        },
        {
          "internalType": "address",
          "name": "token",
          "type": "address"
        },
        {
          "internalType": "bytes",
          "name": "data",
          "type": "bytes"
        }
      ],
      "name": "flashloanCallback",
      "outputs": [],
      "stateMutability": "nonpayable",
      "type": "function"
    }
  ],
  "bytecode": "0x608060405234801561001057600080fd5b5061059f806100206000396000f3fe608060405234801561001057600080fd5b50600436106100365760003560e01c8063a6fc41ab1461003b578063e2ecfa5d14610057575b600080fd5b610055600480360381019061005091906102aa565b610073565b005b610071600480360381019061006c9190610232565b610106565b005b8173ffffffffffffffffffffffffffffffffffffffff1663a9059cbb33856040518363ffffffff1660e01b81526004016100ae929190610368565b602060405180830381600087803b1580156100c857600080fd5b505af11580156100dc573d6000803e3d6000fd5b505050506040513d601f19601f820116820180604052508101906101009190610281565b50505050565b8273ffffffffffffffffffffffffffffffffffffffff16635c26993c308484604051806020016040528060008152506040518563ffffffff1660e01b81526004016101549493929190610391565b600060405180830381600087803b15801561016e57600080fd5b505af1158015610182573d6000803e3d6000fd5b50505050505050565b600061019e6101998461040e565b6103dd565b9050828152602081018484840111156101b657600080fd5b6101c18482856104a2565b509392505050565b6000813590506101d881610524565b92915050565b6000815190506101ed8161053b565b92915050565b600082601f83011261020457600080fd5b813561021484826020860161018b565b91505092915050565b60008135905061022c81610552565b92915050565b60008060006060848603121561024757600080fd5b6000610255868287016101c9565b93505060206102668682870161021d565b9250506040610277868287016101c9565b9150509250925092565b60006020828403121561029357600080fd5b60006102a1848285016101de565b91505092915050565b6000806000606084860312156102bf57600080fd5b60006102cd8682870161021d565b93505060206102de868287016101c9565b925050604084013567ffffffffffffffff8111156102fb57600080fd5b610307868287016101f3565b9150509250925092565b61031a8161045a565b82525050565b600061032b8261043e565b6103358185610449565b93506103458185602086016104b1565b61034e81610513565b840191505092915050565b61036281610498565b82525050565b600060408201905061037d6000830185610311565b61038a6020830184610359565b9392505050565b60006080820190506103a66000830187610311565b6103b36020830186610359565b6103c06040830185610311565b81810360608301526103d28184610320565b905095945050505050565b6000604051905081810181811067ffffffffffffffff82111715610404576104036104e4565b5b8060405250919050565b600067ffffffffffffffff821115610429576104286104e4565b5b601f19601f8301169050602081019050919050565b600081519050919050565b600082825260208201905092915050565b600061046582610478565b9050919050565b60008115159050919050565b600073ffffffffffffffffffffffffffffffffffffffff82169050919050565b6000819050919050565b82818337600083830152505050565b60005b838110156104cf5780820151818401526020810190506104b4565b838111156104de576000848401525b50505050565b7f4e487b7100000000000000000000000000000000000000000000000000000000600052604160045260246000fd5b6000601f19601f8301169050919050565b61052d8161045a565b811461053857600080fd5b50565b6105448161046c565b811461054f57600080fd5b50565b61055b81610498565b811461056657600080fd5b5056fea2646970667358221220d9ef372816ea95db851fb317427b07e85dfde3316efd0bd8b24db6554fd5475864736f6c63430008000033",
  "immutableReferences": {},
  "source": "// SPDX-License-Identifier: unlicensed\r\npragma solidity 0.8.0;\r\n\r\nimport \"@openzeppelin/contracts/token/ERC20/IERC20.sol\";\r\nimport \"./FlashloanProvider.sol\";\r\nimport \"./IFlashloanUser.sol\";\r\n\r\ncontract FlashloanUser is IFlashloanUser {\r\n    function startFlashloan(\r\n        address flashloan,\r\n        uint256 amount,\r\n        address token\r\n    ) external {\r\n        FlashloanProvider(flashloan).executeFlashloan(\r\n            address(this),\r\n            amount,\r\n            token,\r\n            bytes(\"\")\r\n        );\r\n    }\r\n\r\n    function flashloanCallback(\r\n        uint256 amount,\r\n        address token,\r\n        bytes memory data\r\n    ) external override {\r\n        //do some arbitrage, liquidation, etc..\r\n\r\n        //Reimburse borrowed tokens\r\n        IERC20(token).transfer(msg.sender, amount);\r\n    }\r\n}\r\n",
  "sourcePath": "D:\\Github\\flashloan\\contracts\\FlashloanUser.sol",
  "compiler": {
    "name": "solc",
    "version": "0.8.0+commit.c7dfd78e.Emscripten.clang"
  },
  "schemaVersion": "3.4.3",
  "updatedAt": "2022-01-26T14:59:11.420Z",
  "devdoc": {
    "kind": "dev",
    "methods": {},
    "version": 1
  },
  "userdoc": {
    "kind": "user",
    "methods": {},
    "version": 1
  }
}