{
  "contractName": "FlashloanProvider",
  "abi": [
    {
      "inputs": [
        {
          "internalType": "address[]",
          "name": "_tokens",
          "type": "address[]"
        }
      ],
      "stateMutability": "nonpayable",
      "type": "constructor"
    },
    {
      "inputs": [
        {
          "internalType": "address",
          "name": "",
          "type": "address"
        }
      ],
      "name": "tokens",
      "outputs": [
        {
          "internalType": "contract IERC20",
          "name": "",
          "type": "address"
        }
      ],
      "stateMutability": "view",
      "type": "function"
    },
    {
      "inputs": [
        {
          "internalType": "address",
          "name": "callback",
          "type": "address"
        },
        {
          "internalType": "uint256",
          "name": "amount",
          "type": "uint256"
        },
        {
          "internalType": "address",
          "name": "_token",
          "type": "address"
        },
        {
          "internalType": "bytes",
          "name": "data",
          "type": "bytes"
        }
      ],
      "name": "executeFlashloan",
      "outputs": [],
      "stateMutability": "nonpayable",
      "type": "function"
    }
  ],
  "bytecode": "0x60806040523480156200001157600080fd5b5060405162000e8e38038062000e8e833981810160405281019062000037919062000223565b600160008190555060005b8151811015620001625781818151811062000086577f4e487b7100000000000000000000000000000000000000000000000000000000600052603260045260246000fd5b602002602001015160016000848481518110620000cc577f4e487b7100000000000000000000000000000000000000000000000000000000600052603260045260246000fd5b602002602001015173ffffffffffffffffffffffffffffffffffffffff1673ffffffffffffffffffffffffffffffffffffffff16815260200190815260200160002060006101000a81548173ffffffffffffffffffffffffffffffffffffffff021916908373ffffffffffffffffffffffffffffffffffffffff1602179055508080620001599062000309565b91505062000042565b5050620003cf565b6000620001816200017b846200029c565b62000268565b90508083825260208201905082856020860282011115620001a157600080fd5b60005b85811015620001d55781620001ba8882620001df565b845260208401935060208301925050600181019050620001a4565b5050509392505050565b600081519050620001f081620003b5565b92915050565b600082601f8301126200020857600080fd5b81516200021a8482602086016200016a565b91505092915050565b6000602082840312156200023657600080fd5b600082015167ffffffffffffffff8111156200025157600080fd5b6200025f84828501620001f6565b91505092915050565b6000604051905081810181811067ffffffffffffffff8211171562000292576200029162000386565b5b8060405250919050565b600067ffffffffffffffff821115620002ba57620002b962000386565b5b602082029050602081019050919050565b6000620002d882620002df565b9050919050565b600073ffffffffffffffffffffffffffffffffffffffff82169050919050565b6000819050919050565b60006200031682620002ff565b91507fffffffffffffffffffffffffffffffffffffffffffffffffffffffffffffffff8214156200034c576200034b62000357565b5b600182019050919050565b7f4e487b7100000000000000000000000000000000000000000000000000000000600052601160045260246000fd5b7f4e487b7100000000000000000000000000000000000000000000000000000000600052604160045260246000fd5b620003c081620002cb565b8114620003cc57600080fd5b50565b610aaf80620003df6000396000f3fe608060405234801561001057600080fd5b50600436106100365760003560e01c80635c26993c1461003b578063e486033914610057575b600080fd5b61005560048036038101906100509190610568565b610087565b005b610071600480360381019061006c919061053f565b610450565b60405161007e91906107df565b60405180910390f35b600260005414156100cd576040517f08c379a00000000000000000000000000000000000000000000000000000000081526004016100c49061085a565b60405180910390fd5b60026000819055506000600160008473ffffffffffffffffffffffffffffffffffffffff1673ffffffffffffffffffffffffffffffffffffffff16815260200190815260200160002060009054906101000a900473ffffffffffffffffffffffffffffffffffffffff16905060008173ffffffffffffffffffffffffffffffffffffffff166370a08231306040518263ffffffff1660e01b8152600401610174919061079b565b60206040518083038186803b15801561018c57600080fd5b505afa1580156101a0573d6000803e3d6000fd5b505050506040513d601f19601f820116820180604052508101906101c4919061060c565b9050600073ffffffffffffffffffffffffffffffffffffffff168273ffffffffffffffffffffffffffffffffffffffff161415610236576040517f08c379a000000000000000000000000000000000000000000000000000000000815260040161022d906107fa565b60405180910390fd5b84811015610279576040517f08c379a00000000000000000000000000000000000000000000000000000000081526004016102709061083a565b60405180910390fd5b8173ffffffffffffffffffffffffffffffffffffffff1663a9059cbb87876040518363ffffffff1660e01b81526004016102b49291906107b6565b602060405180830381600087803b1580156102ce57600080fd5b505af11580156102e2573d6000803e3d6000fd5b505050506040513d601f19601f8201168201806040525081019061030691906105e3565b508573ffffffffffffffffffffffffffffffffffffffff1663a6fc41ab8686866040518463ffffffff1660e01b81526004016103449392919061087a565b600060405180830381600087803b15801561035e57600080fd5b505af1158015610372573d6000803e3d6000fd5b50505050808273ffffffffffffffffffffffffffffffffffffffff166370a08231306040518263ffffffff1660e01b81526004016103b0919061079b565b60206040518083038186803b1580156103c857600080fd5b505afa1580156103dc573d6000803e3d6000fd5b505050506040513d601f19601f82011682018060405250810190610400919061060c565b14610440576040517f08c379a00000000000000000000000000000000000000000000000000000000081526004016104379061081a565b60405180910390fd5b5050600160008190555050505050565b60016020528060005260406000206000915054906101000a900473ffffffffffffffffffffffffffffffffffffffff1681565b6000610496610491846108e9565b6108b8565b9050828152602081018484840111156104ae57600080fd5b6104b98482856109b2565b509392505050565b6000813590506104d081610a34565b92915050565b6000815190506104e581610a4b565b92915050565b600082601f8301126104fc57600080fd5b813561050c848260208601610483565b91505092915050565b60008135905061052481610a62565b92915050565b60008151905061053981610a62565b92915050565b60006020828403121561055157600080fd5b600061055f848285016104c1565b91505092915050565b6000806000806080858703121561057e57600080fd5b600061058c878288016104c1565b945050602061059d87828801610515565b93505060406105ae878288016104c1565b925050606085013567ffffffffffffffff8111156105cb57600080fd5b6105d7878288016104eb565b91505092959194509250565b6000602082840312156105f557600080fd5b6000610603848285016104d6565b91505092915050565b60006020828403121561061e57600080fd5b600061062c8482850161052a565b91505092915050565b61063e81610946565b82525050565b600061064f82610919565b6106598185610924565b93506106698185602086016109c1565b61067281610a23565b840191505092915050565b6106868161098e565b82525050565b6000610699601383610935565b91507f746f6b656e206e6f7420737570706f72746564000000000000000000000000006000830152602082019050919050565b60006106d9601883610935565b91507f666c6173686c6f616e206e6f74207265696d62757273656400000000000000006000830152602082019050919050565b6000610719600f83610935565b91507f616d6f756e7420746f6f206869676800000000000000000000000000000000006000830152602082019050919050565b6000610759601f83610935565b91507f5265656e7472616e637947756172643a207265656e7472616e742063616c6c006000830152602082019050919050565b61079581610984565b82525050565b60006020820190506107b06000830184610635565b92915050565b60006040820190506107cb6000830185610635565b6107d8602083018461078c565b9392505050565b60006020820190506107f4600083018461067d565b92915050565b600060208201905081810360008301526108138161068c565b9050919050565b60006020820190508181036000830152610833816106cc565b9050919050565b600060208201905081810360008301526108538161070c565b9050919050565b600060208201905081810360008301526108738161074c565b9050919050565b600060608201905061088f600083018661078c565b61089c6020830185610635565b81810360408301526108ae8184610644565b9050949350505050565b6000604051905081810181811067ffffffffffffffff821117156108df576108de6109f4565b5b8060405250919050565b600067ffffffffffffffff821115610904576109036109f4565b5b601f19601f8301169050602081019050919050565b600081519050919050565b600082825260208201905092915050565b600082825260208201905092915050565b600061095182610964565b9050919050565b60008115159050919050565b600073ffffffffffffffffffffffffffffffffffffffff82169050919050565b6000819050919050565b6000610999826109a0565b9050919050565b60006109ab82610964565b9050919050565b82818337600083830152505050565b60005b838110156109df5780820151818401526020810190506109c4565b838111156109ee576000848401525b50505050565b7f4e487b7100000000000000000000000000000000000000000000000000000000600052604160045260246000fd5b6000601f19601f8301169050919050565b610a3d81610946565b8114610a4857600080fd5b50565b610a5481610958565b8114610a5f57600080fd5b50565b610a6b81610984565b8114610a7657600080fd5b5056fea26469706673582212200a3cd2253033f44291bd997c8d76c989621af63df137c3d5795b3062a079dc2c64736f6c63430008000033",
  "immutableReferences": {},
  "source": "// SPDX-License-Identifier: unlicensed\r\npragma solidity 0.8.0;\r\n\r\nimport \"@openzeppelin/contracts/token/ERC20/IERC20.sol\";\r\nimport \"@openzeppelin/contracts/security/ReentrancyGuard.sol\";\r\nimport \"./IFlashloanUser.sol\";\r\n\r\ncontract FlashloanProvider is ReentrancyGuard {\r\n    mapping(address => IERC20) public tokens;\r\n\r\n    constructor(address[] memory _tokens) {\r\n        for (uint256 i = 0; i < _tokens.length; i++) {\r\n            tokens[_tokens[i]] = IERC20(_tokens[i]);\r\n        }\r\n    }\r\n\r\n    function executeFlashloan(\r\n        address callback,\r\n        uint256 amount,\r\n        address _token,\r\n        bytes memory data\r\n    ) external nonReentrant {\r\n        IERC20 token = tokens[_token];\r\n        uint256 originalBalance = token.balanceOf(address(this));\r\n        require(address(token) != address(0), \"token not supported\");\r\n        require(originalBalance >= amount, \"amount too high\");\r\n\r\n        token.transfer(callback, amount);\r\n        IFlashloanUser(callback).flashloanCallback(amount, _token, data);\r\n        require(\r\n            token.balanceOf(address(this)) == originalBalance,\r\n            \"flashloan not reimbursed\"\r\n        );\r\n    }\r\n}\r\n",
  "sourcePath": "D:\\Github\\flashloan\\contracts\\FlashloanProvider.sol",
  "compiler": {
    "name": "solc",
    "version": "0.8.0+commit.c7dfd78e.Emscripten.clang"
  },
  "schemaVersion": "3.4.3",
  "updatedAt": "2022-01-26T14:59:11.412Z",
  "devdoc": {
    "kind": "dev",
    "methods": {},
    "version": 1
  },
  "userdoc": {
    "kind": "user",
    "methods": {},
    "version": 1
  }
}